:020000040800F2
:1000000010070020650200089D0E0008950E0008EC
:10001000990E0008110400085510000800000000A7
:10002000000000000000000000000000A50E000815
:100030001504000800000000A10E0008A90E000829
:100040007F0200087F0200087F0200087F0200088C
:100050007F0200087F0200087F0200087F0200087C
:100060007F0200087F0200087F0200087F0200086C
:100070007F0200087F0200087F0200087F0200085C
:100080007F0200087F0200087F02000800000000D5
:100090000000000000000000000000007F020008D7
:1000A0007F0200087F0200087F0200087F0200082C
:1000B0007F0200087F0200087F0200087F0200081C
:1000C0007F0200087F0200087F0200087F0200080C
:1000D0007F0200087F0200087F0200080000000085
:1000E0007F0200087F0200087F0200080000000075
:1000F0000000000000000000000000007F02000877
:10010000000000007F0200087F0200087F02000854
:1001100000000000000000000000000000000000DF
:100120007F0200087F0200087F0200087F020008AB
:100130007F02000800000000000000000000000036
:100140000000000000000000000000007F02000826
:100150007F0200087F0200087F0200087F0200087B
:100160007F0200087F02000800000000000000007D
:10017000000000000000000000000000000000007F
:10018000000000007F0200080000000000000000E6
:100190007F0200087F02000800F002F800F052F829
:1001A00014A696E8000CB244B344DA4501D100F03D
:1001B00049F8BAE80F000FA696E83000A5EB040551
:1001C00004EB0607AAEB0704A7F101074FEA151590
:1001D0004FEA3414A4F10104AC4201D300F032F828
:1001E00013F0010F18BFFB1A43F0010300F001F8F0
:1001F000DBE71847B40F0000D40F0000103A24BF0B
:1002000078C878C1FAD8520724BF30C830C144BF7B
:1002100004680C6070470000704700000023002451
:1002200000250026103A28BF78C1FBD8520728BF06
:1002300030C148BF0B6070471FB500F09CFF1FBD69
:1002400010B510BD00F0A9F81146FFF7F5FF00F05A
:1002500003FF00F0C7F803B4FFF7F2FF03BC00F0A0
:10026000CFF800000948804709480047FEE7FEE74D
:10027000FEE7FEE7FEE7FEE7FEE7FEE7FEE7FEE756
:1002800004480549054A064B70470000510F000815
:100290009901000810010020100700201003002021
:1002A0001003002053EA020C00F069802DE9F04BA6
:1002B0004FF00006002B1FBFB3FA83F503FA05F4D5
:1002C00024FA05F65E4012BF1643B2FA82F502FA2E
:1002D00005F4C5F120051EBF22FA05FC44EA0C0412
:1002E000203556EA044C4FEA144418BF641C4FF002
:1002F00000084FF00009904271EB030C39D300293C
:1003000019BFB1FA81F701FA07F6B0FA80F700FADF
:1003100007F6C7F120071EBF20FA07FC46EA0C06C5
:100320002037B6FBF4FCA7EB0507103F07F01F0BC7
:10033000CBF120062CFA06F60CFA0BFB44BFB346B1
:100340000026202FA4BF5E464FF0000B5BEA060C90
:1003500008BF4FF0010B19EB0B0948EB0608ABFB8C
:10036000027C06FB02CC0BFB03CCC01B71EB0C0127
:10037000C1E70B46024641464846BDE8F08B13B53F
:10038000084318BF4FF0FF300146AFF30080BDE8CF
:100390001C407047704770477047754600F02CF856
:1003A000AE4605006946534620F00700854618B062
:1003B00020B5FFF765FFBDE820404FF000064FF085
:1003C00000074FF000084FF0000BAC46ACE8C00946
:1003D000ACE8C009ACE8C009ACE8C00921F00701ED
:1003E0008D46704710B50446AFF300802046BDE847
:1003F0001040FFF730BF0000004870471000002099
:1004000001491820ABBEFEE726000200704700003D
:10041000FEE7000070470000002804BF012070477D
:1004200010B50446407918B101206071002010BD5C
:1004300000202071204600F005F8012060710020A6
:1004400010BD000043F63001C4F202010068A1F5BE
:100450000362904218BF704781B000200090086886
:1004600040F480500860086800F4805000900098C4
:1004700001B070472DE9F04F82B000F13E4707F11F
:10048000FF77860546EA972741F20006C4F2020686
:10049000072243F6004EB04208BF0422C4F2010E08
:1004A000042F38BF3A46002600274FF0000800927C
:1004B00009E000BF08F101080237B8F1100F06F19A
:1004C000040600F0A3800D68012202FA08F415EA80
:1004D0000409EFD0D1F804B003220BF0030CACF107
:1004E0000105BA40012D6FEA020A0FD88268CD6873
:1004F00002EA0A02BD402A4382604268A243CBF36B
:10050000001404FA08F42243426005E0BCF1030F32
:1005100002D14FF0030C1EE0C2688C6802EA0A02A6
:10052000BC402243BCF1020FC26014D16FF0030241
:1005300002EA58020244D2F820C006F01C040F233D
:100540000D69A3402CEA0303A5402B431362D1F8A5
:1005500004B00BF0030C02680CFA07F302EA0A027B
:100560001A431BF4403F0260A4D0002243F6440328
:100570000192C4F202031A684FF6084C42F480421A
:100580001A601A68CFF6FF7C02F480420192019A49
:1005900028F00302724452F80C3006F00C050F24C8
:1005A000AC40A343009C04FA05F52B4342F80C3001
:1005B000DEF808204B6842EA090543F60C4CDC02E1
:1005C00058BF22EA0905CEF80850C4F2010CDCF845
:1005D00000209C0242EA090558BF22EA0905CCF82E
:1005E0000050DEF804209C0342EA090558BF22EAC5
:1005F0000905CEF80450DEF80020DB0342EA0905C5
:1006000058BF22EA0905CEF8005053E702B0BDE812
:10061000F08F0000002A08BF0904816170470000C4
:1006200040F20810C2F200000068704740F200007B
:1006300040F20811C2F20000C2F2000100780A681C
:10064000104408607047000080B543F60040C4F2D3
:100650000200016841F400710160016841F48061A9
:100660000160016841F480710160032000F074F8BA
:100670000F2000F005F800F027F8002080BD0000F2
:1006800070B540F20006C2F2000640F2080132786E
:10069000C2F200014FF47A730968B3FBF2F2044628
:1006A000B1FBF2F1084600F04FFB0F2C4FF00105B3
:1006B00008D838B94FF0FF3021460022002500F05D
:1006C0001FF87460284670BD82B0002043F64001D8
:1006D0000190C4F202014A6842F480424A604A68CA
:1006E00002F480420192019A0090086840F0805024
:1006F0000860086800F080500090009802B07047D1
:1007000010B54EF60C5CCEF2000CDCF80030C3F3F2
:10071000022E8EF00704042C28BF0424BEF103032C
:100720004FF0FF3E0EFA04F438BF0023A143994076
:100730000EFA03F39A43114300F00F0200F16043F5
:100740000901043A03F564436244002848BF02F1FA
:100750000C03197010BD00004EF60C51CEF20001D2
:100760000A684FF6FF031A4060F30A2242F08060E5
:1007700040F0FD7008607047002804BF01207047FA
:100780002DE9F04143F60808C4F202080446D8F8FF
:10079000F8030D4600F00700884207D288F8F853A6
:1007A000D8F8F80300F00700A84277D12068810745
:1007B00017D5410705D5D8F8001041F4E051C8F825
:1007C0000010010705D5D8F8001041F46041C8F8C1
:1007D0000010D8F80010A26821F0F0011143C8F809
:1007E0000010C00740D1D8F8F80300F00700A84275
:1007F00007D988F8F853D8F8F80300F00700A842A2
:100800004CD12068410707D5D8F80010E26821F4E0
:10081000E0511143C8F80010000708D5D8F80000CF
:10082000216920F4604040EAC100C8F8000000F0EF
:100830007DF8D8F8001041F29012C1F30311C0F610
:100840000002515C40F2080220FA01F140F204007B
:10085000C2F200000068C2F200021160FFF710FF50
:100860000020BDE8F08100BF6068811E022907D228
:1008700058F8081C89015CBF0120BDE8F08111E037
:10088000012807D158F8081C89035CBF0120BDE886
:10089000F08107E058F8081C890703D40120BDE85F
:1008A000F08100BFD8F8001021F003010843C8F818
:1008B0000000FFF7B5FE064641F28837D8F8000081
:1008C000616800F00C00B0EB810F8CD0FFF7A8FE40
:1008D000801BB842F2D90320BDE8F08140F2080045
:1008E00043F60801C2F20000C4F202010068096880
:1008F00041F2A012C1F38221C0F60002515CC8404F
:100900007047000040F2080043F60801C2F2000000
:10091000C4F202010068096841F2A012C1F3423139
:10092000C0F60002515CC8407047000010B543F6A5
:100930000404C4F20204606800F00C0142F20040BA
:100940000829C0F2F40007D0042918BF10BD41F2F5
:100950000020C0F27A0010BD216801F03F0221683A
:1009600023684902C3F3881106D4A1FB00010023C8
:10097000FFF798FC07E000BF41F20020C0F27A00C8
:100980004843B0FBF2F021680222C1F3014102EBBF
:100990004101B0FBF1F010BD002804BF01207047F9
:1009A0002DE9F04182B00446007843F60006C00706
:1009B000C4F202060CD0B06800F00C00042840F02D
:1009C00081803068800303D56068002800F06A8168
:1009D000207880071BD5B06810F00C0F09D0B068E4
:1009E00000F00C00082840F087807068400200F199
:1009F00083803068800703D5E068012840F0528189
:100A00003068216920F0F80040EAC10030602078A9
:100A1000000713D4207840072AD4A569002D00F0E0
:100A20003C81B06800F00C00082840F0A180012D46
:100A300040F01081012002B0BDE8F081606900281B
:100A400040F20000C4F2472000F07E800121C0F88F
:100A5000801EFFF7E5FD0546706F8007DAD4FFF7CB
:100A6000DFFD401B0228F7D9032002B0BDE8F0816A
:100A7000306C5FEAC0080AD400200190306C40F06E
:100A800080503064306C00F080500190019847F243
:100A90000007C4F200073868C00547D4386840F43E
:100AA00080703860FFF7BCFD054600BF3868C005A0
:100AB0003CD4FFF7B5FD401B0228F7D9032002B054
:100AC000BDE8F081B06800F00C00082803D1706820
:100AD00040023FF576AF6068B0F5803F07D0B0F5D3
:100AE000A02F40F09B80306840F480203060306858
:100AF00040F4803030609BE0E06800285CD000204B
:100B0000C4F2472001210160FFF78AFD054600BFBE
:100B1000306880073FF574AFFFF782FD401B022865
:100B2000F6D9032002B0BDE8F08100BFA06801281B
:100B300005D0052854D1306F40F004003067306F85
:100B400040F00100306755E00021C0F8801EFFF73B
:100B500067FD0546706F80077FF55CAFFFF760FDAE
:100B6000401B0228F6D9032002B0BDE8F08100BF87
:100B70000027C4F2472700203866FFF751FD022DF9
:100B800005460DD13068800140F19080FFF748FDA7
:100B9000401B02284FF00300F4D902B0BDE8F081F9
:100BA0003068800179D5FFF73BFD401B02284FF0EC
:100BB0000300F5D9F1E700BF0020C4F2472000216F
:100BC0000160FFF72DFD0546306880077FF51FAFF8
:100BD000FFF726FD401B02284FF00300F4D9DCE7A5
:100BE000316F002821F001013167316F21F00401DC
:100BF00031677DD0FFF714FD054641F2883700BF0D
:100C0000306F800700F18680FFF70AFD401BB84275
:100C1000F6D9032002B0BDE8F08100BF316800289A
:100C200021F480313160316821F4802131607BD042
:100C3000FFF7F6FC054600BF306880033FF5C8AEFD
:100C4000FFF7EEFC401B6428F6D9032002B0BDE894
:100C5000F08100BF7068E16900F480028A4221D10E
:100C6000216A00F03F028A421CD147F6C071626AD5
:100C70000140B1EB821F15D1A16A4FF6FF73C90382
:100C8000994300F44032A1F580318A420AD1E16AE9
:100C900000F07060B0EB016F04D1002002B0BDE83D
:100CA000F08100BF012002B0BDE8F08104F11C0515
:100CB0002FCD084340EA8210D9034FF6FF729143CB
:100CC000A1F5803140EA0560084370600120386674
:100CD000FFF7A6FC044600BF30688001DDD4FFF7B3
:100CE0009FFC001B02284FF00300F5D955E700BF19
:100CF000FFF796FC054641F2883700BF306F80074A
:100D000008D5FFF78DFC401BB8424FF00300F5D922
:100D100043E700BFB8F1000F3FF57FAE306C20F025
:100D20008050306479E600BFFFF77AFC054600BFCB
:100D3000306880037FF54CAEFFF772FC401B6428DF
:100D40004FF00300F4D928E7411E0020B0EB116FEB
:100D50001CBF012070474EF21002CEF2000251601B
:100D60004EF62351CEF20001F0230B700721906064
:100D700011607047002804BF0120704710B5044679
:100D800090F8410028B9002084F84000204600F087
:100D900021F8242084F841002068C16821F4005122
:100DA000C160204600F0DEF82068016921F490411E
:100DB0000161416921F02A014161C16841F400519A
:100DC000C16000202021606484F8411084F8421042
:100DD000606310BD80B586B0006841F20042C4F285
:100DE000010200219042CDE90411CDE902110191E7
:100DF00024D044F20041C4F20001884248D10020CE
:100E000043F630010090C4F202010A6942F4003254
:100E10000A610A6902F400320092009A00900868A0
:100E20000C2240F0010008600868072100F0010072
:100E3000009000980020C4F202001EE043F630004B
:100E40000091C4F20200426942F02002426142690C
:100E500002F020020092009A00910168C02241F045
:100E6000040101600068082100F00400009000986F
:100E70000020C4F2020000F50060019202220292FA
:100E8000002203920322CDE9042101A9FFF7F2FA1F
:100E900006B080BDFEE70000FEE70000FEE70000B0
:100EA0007047000070470000FFF7C0BBB0B592B0BC
:100EB000002443F64000CDE90A44CDE908440594F6
:100EC000CDE90344CDE901440094C4F20200016875
:100ED000022541F080510160006800F080500090D0
:100EE000009847F200000094C4F20000016841F449
:100EF00040410160006800F44040009000980120EB
:100F000006904FF4803007904FF480000D90082039
:100F10000E90C020CDE90F050420119006A80C9575
:100F2000FFF73AFD10B172B6FEE700BF0F20CDE922
:100F300001054FF48050CDE9040401A80321039476
:100F4000FFF71AFC10B172B6FEE700BF12B0B0BDD9
:100F50004EF68850CEF20000016841F47001016045
:100F60007047000010B504460068D4E902C2236946
:100F7000016921F4405111430161626943EA0C01A6
:100F8000E3691143C268194349F20C639A43114360
:100F9000C1604169A26921F4407141F200431143EB
:100FA00040F48062C4F201039A42416102D1FFF72A
:100FB000A9FC01E0FFF792FCE16963681922B1F531
:100FC000004FA0FB020123D15A00DB0FFFF76AF9A3
:100FD00048F21F51C5F2EB11A0FB01235A094FF64D
:100FE0009C73C0F6FF7303F1805302FB03003223AE
:100FF00003EBC000A0FB01014FF4F87000EA1110F0
:1010000000EB0210C1F3421108442168886010BD52
:101010009A009B0FFFF746F948F21F51C5F2EB11FA
:10102000A0FB01235A094FF69C73C0F6FF7302FB25
:101030000300322303EB0010A0FB0101F02000EAC3
:10104000511000EB0210C1F343110844216888607D
:1010500010BD0000FEE7000086B040F60049C4F273
:101060000209FFF7F1FAFFF721FF002643F63000EF
:10107000CDE904660096C4F202000168002241F046
:101080008001016001684FF4805701F080010091F8
:1010900000990096016841F001010160016801F0CA
:1010A0000101009100990096016841F0080101607A
:1010B000016801F00801009100990096016841F073
:1010C0000401016000684FF4805100F004000090BA
:1010D00000984846FFF79EFA4FF4041001AD012432
:1010E000CDE90206A9F5406029460194FFF7C2F94F
:1010F00048462946CDE90174CDE90366FFF7BAF900
:1011000040F2700509F51050C2F20005286028462B
:10111000FFF782F910B172B6FEE700BFA9F5E4301F
:1011200045F8080F4FF4E1374FF00C082846C5E9A1
:101130000176C5E90366C5E90586EE61FFF71AFE8B
:1011400010B172B6FEE700BF40F2C000A9F57841C9
:10115000C2F200000022C0E90017C0E90222C0E983
:101160000428C0E90622FFF705FE18B172B600BFD9
:10117000FEE700BFFEE7F1EE100A4FF6FF71C0F286
:10118000C03120EA010040F04070E1EE100A7047E3
:101190000000000000000000010203040607080927
:1011A0000000000001020304C81100080000002034
:1011B00010000000FC010008D811000810000020F9
:1011C000000700001C0200080100000010000000E1
:0811D0000024F40000000000FF
:040000050800019955
:00000001FF
